S01C000034426974436F756E746572496E747572727570742E73726563F8
S11300000C942A000C943E000C944C000C943C007C
S11300100C943C000C943C000C943C000C943C006C
S11300200C943C000C943C000C943C000C943C005C
S11300300C943C000C943C000C943C000C943C004C
S11300400C943C000C943C000C943C000C943C003C
S11300500C943C0011241FBECFE5D8E0DEBFCDBF19
S113006020E0A0E6B0E001C01D92A136B207E1F79E
S11300700E9457000C9465000C9400001F920F928C
S11300800FB60F9211248F938FEF8BBB8F910F902C
S11300900FBE0F901F9018951F920F920FB60F92DC
S11300A011241BBA0F900FBE0F901F9018958FE06C
S11300B08ABB809160008BBB85B7807F85BF80EC55
S11100C08BBF789480E090E00895F894FFCF11
S9030000FC
