:100000000C942A000C943C000C943C000C943C0092
:100010000C943C000C943C000C943C000C943C0070
:100020000C943C000C943C000C943C000C943C0060
:100030000C943C000C943C000C943C000C943C0050
:100040000C943C000C943C000C943C000C943C0040
:100050000C943C0011241FBECFE5D8E0DEBFCDBF1D
:1000600020E0A0E6B0E001C01D92A136B207E1F7A2
:100070000E943E000C9467000C9400008FE081BB4E
:100080008BEF87BB8FEF82BBB09B0EC0809160006F
:10009000803119F41092600003C08F5F809360007C
:1000A0008091600082BB0CC0B19B0AC0809160004F
:1000B000882319F08150809360008091600082BB9A
:1000C0008FE493EC0197F1F700C00000DDCFF894C6
:0200D000FFCF60
:00000001FF
