S013000042694C65644D61747269782E73726563DC
S11300000C942A000C943F000C943F000C943F0085
S11300100C943F000C943F000C943F000C943F0060
S11300200C943F000C943F000C943F000C943F0050
S11300300C943F000C943F000C943F000C943F0040
S11300400C943F000C943F000C943F000C943F0030
S11300500C943F0011241FBECFE5D8E0DEBFCDBF16
S113006010E0A0E6B0E0EEEEF0E002C005900D92E4
S1130070A236B107D9F70E946E000C9475000C9457
S1130080000080916100813011F0803839F48FEFE5
S113009082BB8091610080958BBB06C081E882BBE6
S11300A08091610080958BBB80916100803839F428
S11300B081E08093610080E88093600008C0880F2D
S11300C0809361008091600086958093600083EF47
S11300D091E00197F1F700C0000008958FEF8ABB0B
S11100E081BB1BBA0E944100FDCFF894FFCFF4
S10500EE80018B
S9030000FC
