S00C0000414443312E737265631F
S11300000C942A000C9434000C9434000C943400A6
S11300100C9434000C9434000C9434000C9434008C
S11300200C9434000C9434000C9434000C9434007C
S11300300C9434000C9434000C9434000C9434006C
S11300400C9434000C9434000C9434000C9434005C
S11300500C94340011241FBECFE5D8E0DEBFCDBF21
S11300600E9436000C944B000C9400008FEF87BB69
S113007080E687B981E886B9369A3699FECF85B18C
S113008088BB2FE986E891E0215080409040E1F759
S10D009000C00000F1CFF894FFCF88
S9030000FC
