S00B00004354312E7372656351
S11300000C942A000C943C000C943C000C943C008E
S11300100C943C000C943C000C943C000C943C006C
S11300200C943C000C943C000C943C000C943C005C
S11300300C943C000C943C000C943C000C943C004C
S11300400C943C000C943C000C943C000C943C003C
S11300500C943C0011241FBECFE5D8E0DEBFCDBF19
S113006020E0A0E6B0E001C01D92A136B207E1F79E
S11300700E943E000C946A000C9400008FE08ABB3E
S11300801BBA89B38093600086FF11C0D89B04C05B
S11300908BB38E708BBB01C0D89A2FE986E891E0B0
S11300A0215080409040E1F700C00000EACF88234F
S11300B044F7D99B04C08BB38D708BBB01C0D99A14
S11300C02FE986E891E0215080409040E1F700C09C
S10B00D00000D7CFF894FFCF24
S9030000FC
