S012000053657269616C436F6D312E7372656362
S11300000C942A000C9447000C9434000C94340093
S11300100C9434000C9434000C9434000C9434008C
S11300200C9434000C9434000C9434000C9434007C
S11300300C9434000C9434000C9434000C9434006C
S11300400C9434000C9434000C9434000C9434005C
S11300500C94340011241FBECFE5D8E0DEBFCDBF21
S11300600E947C000C949B000C9400001BB888E157
S11300708AB986E880BD83E389B910BC08955D9B85
S1130080FECF8CB908955F9BFECF8CB108951F926B
S11300900F920FB60F9211242F933F934F935F93B8
S11300A06F937F938F939F93AF93BF93EF93FF933C
S11300B081E60E943F001BB88FEF8BBB87EA91E675
S11300C00197F1F700C000001BBA87EA91E6019797
S11300D0F1F700C00000FF91EF91BF91AF919F91A4
S11300E08F917F916F915F914F913F912F910F90DD
S11300F00FBE0F901F9018958FEF87BB8ABB0E948D
S1130100360084B7836084BF80E48BBF7894CFEFDC
S11301100E9443008136E1F7C8BB83E294EF019764
S1130120F1F700C0000018BA83E294EF0197F1F7E9
S10D013000C00000EDCFF894FFCFEB
S9030000FC
