:100000000C942A000C943C000C943E000C9460006C
:100010000C943C000C943C000C943C000C943C0070
:100020000C943C000C943C000C943C000C943C0060
:100030000C943C000C943C000C943C000C943C0050
:100040000C943C000C943C000C943C000C943C0040
:100050000C943C0011241FBECFE5D8E0DEBFCDBF1D
:1000600020E0A0E6B0E001C01D92A136B207E1F7A2
:100070000E9489000C949A000C9400001F920F9229
:100080000FB60F9211242F938F939F93809160004E
:100090008F5F8F70809360008BBB2FE38DE093E0C8
:1000A000215080409040E1F700C000008FEF8ABFF0
:1000B0009F918F912F910F900FBE0F901F901895C9
:1000C0001F920F920FB60F9211242F938F939F932D
:1000D00080916000811104C08FE08093600003C0B4
:1000E000815080936000809160008BBB2FE38DE096
:1000F00093E0215080409040E1F700C000008FEF76
:100100008ABF9F918F912F910F900FBE0F901F90DC
:1001100018958FE08ABB809160008BBB85B78B7F81
:1001200085BF85B7886085BF84B714BE80EA8BBF62
:080130007894FFCFF894FFCF93
:00000001FF
