:100000000C942A000C9436000C9445000C94340097
:100010000C9434000C9434000C9434000C94340090
:100020000C9434000C9434000C9434000C94340080
:100030000C9434000C9434000C9434000C94340070
:100040000C9434000C9434000C9434000C94340060
:100050000C94340011241FBECFE5D8E0DEBFCDBF25
:100060000E9454000C945D000C9400001F920F92AB
:100070000FB60F921124C09B02C0C09801C0C09A55
:100080000F900FBE0F901F9018951F920F920FB6F2
:100090000F921124C19B02C0C19801C0C19A0F9058
:1000A0000FBE0F901F9018958FEF87BB18BA95B7AA
:0E00B000907F95BF8BBF7894FFCFF894FFCF61
:00000001FF
