S01700004763634170706C69636174696F6E312E737265635B
S11300000C942A000C943C000C943E000C943C008C
S11300100C943C000C943C000C943C000C943C006C
S11300200C943C000C943C000C943C000C943C005C
S11300300C943C000C943C000C943C000C943C004C
S11300400C943C000C943C000C943C000C943C003C
S11300500C943C0011241FBECFE5D8E0DEBFCDBF19
S113006020E0A0E6B0E001C01D92A136B207E1F79E
S11300700E9463000C946D000C9400001F920F9278
S11300800FB60F9211242F938F939F93809160004A
S1130090843010F010926000809160008F5F809334
S11300A0600088BB2FE38DE093E0215080409040B6
S11300B0E1F700C000009F918F912F910F900FBE28
S11300C00F901F9018958FEF87BB18BA80E88BBFED
S11100D085B7837F85BF7894FFCFF894FFCF68
S9030000FC
