S01700004763634170706C69636174696F6E332E7372656359
S11300000C942A000C943E000C9465000C943C0063
S11300100C943C000C943C000C943C000C943C006C
S11300200C943C000C943C000C943C000C943C005C
S11300300C943C000C943C000C943C000C943C004C
S11300400C943C000C943C000C943C000C943C003C
S11300500C943C0011241FBECFE5D8E0DEBFCDBF19
S113006020E0A0E6B0E001C01D92A136B207E1F79E
S11300700E9488000C9494000C9400001F920F922C
S11300800FB60F9211242F938F939F93809160004A
S1130090803121F4109260001BBA04C08F5F8093FA
S11300A060008BBB2FE38DE093E0215080409040B3
S11300B0E1F700C000008FEF8ABF9F918F912F91CD
S11300C00F900FBE0F901F9018951F920F920FB6AE
S11300D00F9211242F938F939F9380916000882314
S11300E021F08150809360008BBB2FE38DE093E07F
S11300F0215080409040E1F700C000008FEF8ABF9C
S11301009F918F912F910F900FBE0F901F90189574
S11301108FE08ABB809160008BBB85B7807F85BFF1
S10F012080EC8BBF7894FFCFF894FFCFE5
S9030000FC
